:020000040800F2
:10000000D006002005010008932D0008C12A000831
:10001000912D0008610A00087D34000800000000EE
:10002000000000000000000000000000052F000894
:10003000D50A000800000000BB2E0008072F0008AA
:100040001F0100081F0100081F0100081F01000810
:100050001F0100081F0100081F0100081F01000800
:100060001F0100081F0100081F0100081F010008F0
:100070001F0100081F0100081F0100081F010008E0
:100080001F0100081F0100081F0100081F010008D0
:100090001F0100081F0100081F0100081F010008C0
:1000A0001F0100081F0100081F0100081F010008B0
:1000B0001F0100081F010008852F00081F0100080C
:1000C0001F0100081F0100081F0100081F01000890
:1000D0001F010008653400081F0100087134000882
:1000E0001F0100081F0100081F010008DFF810D0E1
:1000F00000F010FC00480047253E0008AFF30080E8
:10010000D00600200648804706480047FEE7FEE785
:10011000FEE7FEE7FEE7FEE7FEE7FEE7FEE7FEE7B7
:10012000832F0008ED000008202A04DB203A21FA82
:1001300002F00021704721FA02F3D040C2F1200200
:10014000914008431946704740EA01039B0703D0DA
:1001500009E008C9121F08C0042AFAD203E011F806
:10016000013B00F8013B521EF9D27047D2B201E0C8
:1001700000F8012B491EFBD270470022F6E710B5AC
:1001800013460A4604461946FFF7F0FF204610BD05
:10019000F0B480EA0102D40F4200B2EB410F02D268
:1001A0000246084611464A0042D0C30DDDB2C1F3F3
:1001B000C752AD1A202D35DAC1F3160141F4000201
:1001C00004B15242C5F1200602FA06F12A41104458
:1001D000B3EBD05F23D0C4B1012DA0EBC35009DC39
:1001E000F0BC4FF0004202EAC352DBB200F500005F
:1001F00000F07DBA400000F1807000EBC350A0F128
:10020000807040EAD170490009E0490841EAC071B4
:10021000A0EBC35000F50000400800EBC350F0BC59
:1002200000F05CBA6142012202EB4101001BF6E7DB
:10023000F0BC704781F00041AAE780F00040A7E7DA
:1002400080EA010210B502F00043400022D04A00CB
:100250001FD0010E01EB1261C0F35600C2F356022B
:1002600040F4000042F40002A0FB022000047F39A9
:10027000140400D0401C50EA124001D44000491E32
:10028000C2B20C0604EBD010401C4008802A02D0F9
:1002900003E0002010BD20F00100002900DA00205A
:1002A000184310BD2DE9FE4F804681EA0300C00FC0
:1002B0000C46009021F0004123F00045B8EB02000D
:1002C000A94105D24046214690461C460B460246AF
:1002D00023F00040104347D0270DC7F30A00C3F3B3
:1002E0000A510290401A019040286BDAC3F31300C0
:1002F00040F4801B0098924620B10023D2EB030A01
:1003000063EB0B0B01985946C0F14002504600F0D8
:10031000C4F906460D4650465946019A00F0CCF9FC
:1003200010EB08006141002487EA115284EAE77368
:100330001A4340D0009A62B3019A012A4FEA075249
:1003400015DC001B61EB02014FF0004202EA07528C
:10035000CDE90042001C41F5801132462B4600F0E9
:1003600003FA03B0BDE8F08F40462146F9E7001BD1
:1003700061EB0201001C41F5801300185B4120185D
:10038000A2F5001747EB030140EAD570B6196D419D
:1003900011E06D084FEA360645EAC0754FEA07528C
:1003A000001B61EB0201001C41F5801149084FEA76
:1003B00030000019514132462B4603B0BDE8F04FE2
:1003C00000F0C3B90098012240000023D0EB0202E4
:1003D00063EBE073009821464FEAE074B8EB00004D
:1003E00061EB0401E9E783F000435BE781F0004142
:1003F00058E72DE9FE4F81EA030404F0004421F0A0
:10040000004100944FF0000B23F0004350EA010438
:100410005ED052EA03045BD0C3F30A54C1F30A5519
:100420002C44A4F2F3340194A0FB0254C1F3130151
:1004300041F48011C3F3130343F4801301FB02441E
:1004400000FB034E840A970A44EA815447EA835723
:10045000A4FB076802958D0A05FB07854FEA932CDC
:1004600004FB0C542705029D4FEA065847EA16374D
:10047000B5EB08056EEB070C870E920E47EA811765
:1004800042EA8312A7FB0201B6EB0B0164EB000406
:100490002B0D43EA0C335E1844EB1C50DA465146F0
:1004A000E7FB0201C5F313044FEA0B3343EA14538D
:1004B0004FEA0432019C43EA0603A4F10C040294BF
:1004C000009CCDE900B400F04FF903B0BDE8F08F17
:1004D00000200146F9E7C10F80EAE0700844CA072E
:1004E0009623002100F003B996230022114600F064
:1004F000FEB800F0004220F00040C10DC0F316002D
:1005000040F400007F2901DA00207047962903DCBF
:10051000C1F19601C84001E096398840002AF4D024
:100520004042704700F0004230F000400AD0C10D58
:1005300001F56071C0F3160042EA0151C20840079C
:1005400011437047002001467047000030B5041E7B
:1005500071F1000404DB4FF00044404264EB010100
:10056000141E73F1000405DB1C464FF00043524299
:1005700063EB04038B4208BF824230BD30B5041EDA
:1005800071F1000404DB4FF00044404264EB0101D0
:10059000141E73F1000405DB1C464FF00043524269
:1005A00063EB0403994208BF904230BD01F0004361
:1005B00030B421F0004150EA010206D00A0DA2F544
:1005C0006072C1F31301002A02DC30BC00207047C6
:1005D000440F44EAC104C100E01830BC00EBC25033
:1005E00000F07CB8002801DBC0F10040002901DBED
:1005F000C1F1004181427047002801DBC0F1004099
:10060000002901DBC1F100418842704730B50B463B
:10061000014600202022012409E021FA02F59D4232
:1006200005D303FA02F5491B04FA02F52844151E06
:10063000A2F10102F1DC30BD2DE9F05F054600209A
:1006400092469B4688460646814640241BE0284643
:10065000414647462246FFF767FD53465A46C01AB1
:10066000914110D311461846224600F016F82D1A73
:1006700067EB01084F4622460120002100F00DF8EB
:1006800017EB00094E41201EA4F10104DFDC4846AF
:1006900031462A464346BDE8F09F202A04DB203A33
:1006A00000FA02F1002070479140C2F1200320FAC5
:1006B00003F3194390407047202A06DBCB17203AFA
:1006C00041FA02F043EAE07306E041FA02F3D04057
:1006D000C2F1200291400843194670470029A8BF83
:1006E0007047401C490008BF20F00100704710B45B
:1006F000B0FA80FC00FA0CF050EA010404BF10BC10
:10070000704749B1CCF1200421FA04F411FA0CF13C
:1007100018BF012121430843A3EB0C01CB1D4FEA75
:1007200000614FEA102042BF002010BC704700EB70
:10073000C35010440029A4BF10BC7047401C49009E
:1007400008BF20F0010010BC704710B5141E73F1F3
:10075000000408DA401C41F1000192185B411A4381
:1007600001D120F0010010BD2DE9F04D92469B46CD
:1007700011B1B1FA81F202E0B0FA80F22032904673
:10078000FFF78BFF04460F4640EA0A0041EA0B01DF
:1007900053465A46084313D0114653EA010019D074
:1007A000C8F140025046FFF7BFFC05460E465046D2
:1007B00059464246FFF771FF084305D0012004E087
:1007C00020463946BDE8F08D0020054346EAE07634
:1007D0002C4337430A986305E40AA0EB0800002283
:1007E000FD0A44EA47540A3002D500200146E9E7F1
:1007F000010510196941DDE9084500196941BDE8A5
:10080000F04DA2E72DE9F04D81EA030404F0004B1E
:1008100021F0004514464FF0000A23F0004150EA51
:10082000050220D054EA01021DD0C5F30A57024642
:10083000C5F31303C1F31300C1F30A5640F4801546
:1008400043F48013A7EB0608101BD64608F2FD38C8
:1008500073EB050002D308F1010801E092185B4137
:10086000B8F1000F03DA00200146BDE8F08D00204A
:100870004FF48011064684460EE0171B73EB050704
:1008800005D3121B63EB050306434CEA010C490830
:100890004FEA300092185B4150EA0107EDD152EA6D
:1008A000030012D082EA040083EA0501084305D060
:1008B000101BAB4106D20122002306E000224FF0BC
:1008C000004302E06FF0010253101AEB06004CEBFC
:1008D000085110EB0A0041EB0B01BDE8F04DFFF7AA
:1008E00034BFC1F30A52C1F3130140F2FF3341F4A4
:1008F00080119A4202DA00200146704740F23343E9
:100900009A42A2F2334202DC5242FFF70DBCFFF7DB
:10091000C4BE0000064C074D06E0E06840F001034D
:1009200094E8070098471034AC42F6D3FFF7E2FB97
:10093000743F0008943F000870B50E4CE0682061D9
:100940000D4880880546FFF7CFFDA060A5F2BE5098
:10095000FFF7C1FD0949FFF773FC0949FFF76AFC7E
:100960000849E060884203D90749FFF711FCE060BD
:1009700070BD00005C00002000000020350BB43D7D
:1009800000003443000034C30000B44370B5044693
:1009900000688168C943C90717D1816821F0010146
:1009A000816000F0A3FC05460AE000BF00F09EFC59
:1009B000401B022804D920688068C043C00706D0C5
:1009C00020688068C043C007F0D0002070BDA06AD6
:1009D00040F01000A062E06A40F00100E0620120F7
:1009E00070BD0000F8B500260446009600688168D6
:1009F000C943C9072DD0816841F0010181601648C3
:100A000016490068B0FBF1F000E0401E009000289D
:100A1000FBD100F06BFC054616E000BF00F066FC61
:100A2000401B022810D920688068C043C0070BD043
:100A3000A06A40F01000A062E06A40F00100E062AD
:100A400084F824600120F8BD20688068C043C00796
:100A5000E4D10020F8BD00004400002040420F0017
:100A6000FEE700001949012230280FD0312820D09C
:100A7000322820D0332820D0342820D0352820D048
:100A8000362820D0732800D18A6170470020886101
:100A90008A70C861014602460D48C0E9061200216D
:100AA000C0E90811C0E90A11C0E90E11C0E90C1132
:100AB0007047CA617047022006E0032004E004206A
:100AC00002E0052000E00620C86170470000002019
:100AD00070000020704772B6FEE70000F8B50025F0
:100AE0000446009590F8240001280BD0012084F8DA
:100AF00024002046FFF74AFF2046FFF773FF060059
:100B000002D050E00220F8BDA06A20F4885040F0E6
:100B10000200A062022000F087FC25490968B1FBB1
:100B2000F0F0400000E0401E00900028FBD120685B
:100B3000816841F00801816000F0D8FB074608E0B9
:100B400000F0D4FBC01B0A2803D920688068000786
:100B500015D4206880680007F2D42068816841F0CD
:100B60000401816000F0C2FB074612E000F0BEFB0A
:100B7000C01B0A280DD920688068400709D5A06AE3
:100B800020F0020040F01000A06284F82450012000
:100B9000F8BD206880684007E8D4A06A20F0020011
:100BA00040F00100A06284F824503046F8BD0000F7
:100BB00044000020F8B50024009490F82420254635
:100BC000012A12D0012280F824204A681F23072A14
:100BD0000DD20668776B521E02EB820293409F4350
:100BE0000B6893401F43776319E00220F8BD066845
:100BF0000D2A0AD2376BD21F02EB820293409F4329
:100C00000B6893401F43376309E0F76A0D3A02EB24
:100C1000820293409F430B6893401F43F7620A6828
:100C2000072306680A2A0AD3F7680A3A02EB420247
:100C300093409F438B6893401F43F76008E03769F8
:100C400002EB420293409F438B6893401F433761FE
:100C50000A68102A01D0112A20D1124B02689A4248
:100C600017D193681B0219D4936843F4000393606F
:100C70000968102912D10C490C4A0968B1FBF2F13C
:100C800001EB8101490000E0491E00910029FBD1E0
:100C900004E0816A41F020018162012480F824503F
:100CA0002046F8BD002401404400002040420F00CF
:100CB000806A70470068C06C704700002DE9F04101
:100CC0004FF0000704003D467ED0A06A002628B9F8
:100CD000E66284F82460204600F07EF82046FFF7A4
:100CE00055FEA16AC90600D420B1A06A40F01000E8
:100CF000A06269E0A16A21F4885141F00201A16279
:100D00006268E169237B0A4347EA43010A43A16819
:100D10004FF48077B94209D0012907D05FF0000174
:100D200094F814C0BCF1010F02D00AE03946F7E78D
:100D3000F3B1A36A43F02003A362E36A43F0010323
:100D4000E3622368D3F804C02CF4694C4CEA010C2C
:100D5000C3F804C021688B68DFF870C003EA0C0395
:100D600013438B60A168B9420BD0012909D00CE074
:100D7000DFF85CC0A3690CEB43330B4343F4006121
:100D8000DFE7218A0D05A5F580152168CB6A23F4DC
:100D900070032B43CB62216889680E4B1940914246
:100DA00008D1E662A16A21F0020141F00101A162CD
:100DB000BDE8F081A06A20F0020040F01000A062BF
:100DC000E06A40F00100E0620120F1E7FDF7E1FF99
:100DD00000E0FFFFFE0E1FFF00B585B0002100916F
:100DE00001910291039100680E49884218D10E4882
:100DF000816941F400718161816901F4007104919C
:100E0000816941F0040181618069694600F0040054
:100E100004900220009003200190044800F076F92D
:100E200005B000BD00240140001002400008014050
:100E30002DE9F84300270D460446009700F056FAC6
:100E4000804620688168C90508D5A06A40F0200066
:100E5000A06284F824700120BDE8F8834168C905C8
:100E600003D4C06A10F4700F2AD0022000F0DCFA1C
:100E70003B490968B1FBF0F62068036939490B4228
:100E80004FEA61014FEAA1121FD1C3684FEA611C0A
:100E900013EA0C0F19D103690B4225D1C068104227
:100EA00022D1142023E0681C0AD02DB100F01EFAD4
:100EB000A0EB0800A84203D920680068800725D568
:100EC000206800688007EED52DE003690B4202D14F
:100ED000C168114206D0026923490A4206D1C0689E
:100EE000084203D1542002E0292000E0FC204643C0
:100EF000009816E0681C11D02DB100F0F7F9A0EBB6
:100F00000800A8420AD90098B04207D2A06A40F06F
:100F10000400A06284F8247003209DE70098401C20
:100F20000090B042E6D321686FF012000860A06A1A
:100F300040F40070A06220688068C0F34240072837
:100F40000CD1207B50B9A06A20F48070A062A06A06
:100F5000C00403D4A06A40F00100A06200207BE737
:100F600044000020244992244992240070B504468C
:100F700090F8240001280DD0012084F82400204698
:100F8000FFF730FD02004FF0000005D084F8240088
:100F9000104670BD022070BDA16A40F20123994342
:100FA00041F48071A1621F4D23681F49AB4218D1E3
:100FB0000E6816F4702F14D0A66A46F48016A66246
:100FC0000E68760505D5A66A26F4005646F48056C6
:100FD000A662A66AF6040AD5E66A26F00606E66266
:100FE00006E0A66A26F48016A6625E68E9E7E0627B
:100FF00084F824006FF00200186020688368C3F34F
:101000004243072B05D1A84208D1096811F4702F7B
:1010100004D0816841F480118160B9E7816841F4AE
:10102000A001F9E7002801400424014010B590F820
:1010300021100022022905D00421816380F820209C
:10104000012010BD01680B6823F00E030B600168DE
:101050000B6823F001030B6090F84030C46B012152
:1010600001FA03F3636080F8211080F82020104615
:1010700010BD000010B590F821100024022903D003
:101080000421816301243DE001680A6822F00E0218
:101090000A6001680A6822F001020A601A4A0168BF
:1010A000914201D1012121E0174A1432914201D12C
:1010B00010211BE0144A2832914201D1891515E014
:1010C000114A3C32914201D189140FE00E4A50324C
:1010D000914202D14FF4803108E00B4A64329142D0
:1010E00002D14FF4801101E04FF08071064A083AB6
:1010F0005160012180F82110002180F82010416BFF
:1011000001B18847204610BD080002402DE9F84F84
:10111000DFF8B8910024A9F1040B23460F2709F149
:10112000040AABF1040EC9E00125A5402A40AA42F9
:101130007DD1674ED1F804C0ACEB0608B44532D07F
:1011400014DCBCF1030F3AD009DCBCF1000F2AD04B
:10115000BCF1010F1CD0BCF1020F31D11DE0BCF17C
:10116000110F17D0BCF1120F2AD119E0B8F5881F62
:1011700019D006DCB8F5803F15D0B8F5801F1FD117
:1011800011E0B8F5001F0ED0B8F5041F18D10AE021
:10119000CB6815E0CB681B1D12E0CB6808330FE06D
:1011A000CB680C330CE08B682BB1012B4FF008039C
:1011B00003D0456104E0042302E0056100E0002360
:1011C000FF2A01D8064601E000F104064FEA840533
:1011D00001D9A5F12005D6F8008007FA05FC28EA18
:1011E0000C0803FA05F548EA0508C6F800804D68C2
:1011F000ED0062D5374DAE6946F00106AE61AD69CE
:1012000024F0030605F001050095334D06EB050CAF
:10121000DCF80850A607360F07FA06F825EA080595
:10122000DFF8B880404503D14FF0000817E044E0F4
:10123000DFF8AC80404502D14FF001080FE0DFF845
:10124000A480404502D14FF0020808E0DFF8988002
:10125000404502D14FF0030801E04FF0040808FABE
:1012600006F848EA0508CCF808804D68D9F800600F
:10127000ED024D4601D5164300E096432E604D68C1
:10128000DAF80060AD02554601D5164300E09643FA
:101290002E604D68DBF80060AD035D4601D5164356
:1012A00000E096432E604D68DEF80060ED03754661
:1012B00001D5164300E096432E60641C0D682A4653
:1012C000E5407FF431AFBDE8F88F0000080401402D
:1012D0000000111000100240000001400008014011
:1012E000000C0140001001400014014001488068DA
:1012F00070470000380000200248816802781144DD
:101300008160704738000020074810B5016841F03F
:1013100010010160032000F075F80F2000F006F8BE
:1013200000F024F8002010BD0020024070B50D4DE3
:1013300004464FF47A712878B1FBF0F00A49096845
:10134000B1FBF0F000F0A4FB48B9102C07D200224A
:101350002146501E00F036F800206C6070BD012060
:1013600070BD000038000020440000200C4808B583
:10137000816941F001018161816901F00101009100
:10138000C16941F08051C161C06900F08050009096
:101390000448416821F0E06141F00071416008BDFE
:1013A0000010024000000140002809DB00F01F028D
:1013B000012191404009800000F1E020C0F80011B7
:1013C00070470000F0B40E4B1B680C46C3F30223B9
:1013D000C3F10705042D00D90425191D072901D2E1
:1013E000002300E0DB1E012606FA05F1491E21401C
:1013F00099409E40761E16403143F0BC02F07AB808
:101400000CED00E0064900F0070208684FF6FF0304
:10141000184040EA0220034A104308607047000069
:101420000CED00E00000FA0510B501460020234C49
:10143000012922D0022939D010291DD161682268E2
:10144000D20119D51E48C1F38342C903805C0AD575
:1014500061681B4AC1F34041921E515C194AB2FBBC
:10146000F1F1484301E0184948436168490203D457
:1014700040000321B0FBF1F010BD226AC2F301214C
:10148000012903D1920701D5C80310BD022905D156
:10149000626A920702D549F6404010BD0329FCD18B
:1014A00021688903F9D54FF2244010BD00F02AF9D4
:1014B0006168C1F38131491C4900DBE7001002403B
:1014C0004C3F000800127A0000093D002DE9F84366
:1014D00005460078354CC00754D0E0690026C000AE
:1014E00008D4E06940F08050E061E069012600F036
:1014F000805000902E480168C90512D401688046CA
:1015000041F480710160FFF7F1FE074605E000BF7E
:10151000FFF7ECFEC01B642823D8D8F80000C005F4
:10152000F6D5206A10F4407021D0A98801F44071EA
:1015300081421CD0206A1F49012220F440700A60B9
:1015400000220A602062C00711D0FFF7CFFE0746D5
:1015500041F2883808E000BFFFF7C8FEC11B4145D3
:1015600002D90320BDE8F883206A8007F4D5206AF9
:10157000696820F44070084320621EB1E06920F0E1
:101580008050E0612878800705D56068A96820F45C
:101590004040084360602878C00605D56068E96867
:1015A00020F48000084360600020DBE70010024068
:1015B00000700040400442422DE9F0470F4605000C
:1015C00061D0434E306800F00700B84209D230685D
:1015D00020F0070038433060306800F00700B84260
:1015E00051D128683B4C810712D5400703D560686C
:1015F00040F4E06060602878000703D5606840F43C
:10160000605060606068A96820F0F0000843606086
:101610002878C00728D06868012810D021680228DF
:1016200010D0890700292EDA616821F003010143F7
:101630006160FFF75BFE804641F288390DE021686A
:101640008903EFE78901EDE7FFF750FEA0EB080102
:10165000494502D90320BDE8F0876068696800F059
:101660000C00B0EB810FEFD1306800F00700B842FA
:101670000BD9306820F0070038433060306800F044
:101680000700B84201D00120E5E72878400705D5DA
:101690006068E96820F4E06008436060287800072B
:1016A00006D56068296920F4605040EAC100606096
:1016B00000F038F86168084AC1F30311515CC84072
:1016C0000649086006480068FFF730FE0020C2E7C0
:1016D00000200240001002405C3F0008440000204F
:1016E0003C0000200448054900684968044AC1F3E9
:1016F0000221515CC84070474400002000100240A5
:101700006C3F00080448054900684968044AC1F371
:10171000C221515CC84070474400002000100240C4
:101720006C3F00080E4A51680E4801F00C03042B70
:1017300011D0082B0FD10C48C1F38343C903C05CFF
:101740000AD55168084AC1F34041921E515C054ACE
:101750005043B0FBF1F07047044948437047000024
:101760000010024000127A003A3F000800093D00D4
:101770002DE9F84F040070D02078C04DC00749D043
:101780006868C0F38100012807D06868C0F3810051
:10179000022809D16868C00306D52868800339D5B6
:1017A00060680028E7D035E06068B0F5803F0BD076
:1017B00010B1B0F5A02F11D0286820F48030286037
:1017C000286820F4802002E0286840F480302860F7
:1017D000606890B1FFF78AFD06460AE0286840F489
:1017E00080202860F0E700BFFFF780FD801B6428A1
:1017F00073D828688003F7D50CE0FFF777FD06461D
:1018000005E000BFFFF772FD801B6428F0D8286850
:101810008003F7D420789A4E80074FF001094FF0EB
:10182000000839D5686810F00C0F07D06868C0F35D
:101830008100022809D16868C00306D4286880079F
:1018400014D52069012808D110E02069B0B1C6F88C
:101850000090FFF74BFD074605E00AE1FFF746FD64
:10186000C01B0228C4D828688007F7D5286861699A
:1018700020F0F80040EAC10028600DE0C6F80080C2
:10188000FFF734FD074604E0FFF730FDC01B0228D8
:1018900023D828688007F7D4207800072CD579480A
:1018A000A169D9B1C0F80090FFF720FD074604E018
:1018B000FFF71CFDC01B02280FD8686A8007F7D508
:1018C00071484FF4FA510068B0FBF1F0009000BF8E
:1018D0000098411E0091FAD20EE080E0C0F800802E
:1018E000FFF704FD074604E0FFF700FDC01B0228D8
:1018F00075D8686A8007F7D42078400760D5E86912
:101900000027C00008D4E86940F08050E861E86929
:10191000012700F0805000905C480168C90513D48D
:101920000168834641F480710160FFF7DFFC824665
:1019300006E000BFFFF7DAFCA0EB0A0064284ED8EF
:10194000DBF80000C005F5D5E06801280AD008B131
:10195000052813D0286A20F001002862286A20F0A8
:10196000040002E0286A40F001002862E06841F2C9
:10197000883B98B1FFF7BAFC82460BE0286A40F03A
:1019800004002862EEE700BFFFF7B0FCA0EB0A01FD
:1019900059455AD8286A8007F6D50CE0FFF7A6FC0F
:1019A000824605E0FFF7A2FCA0EB0A0159454CD89E
:1019B000286A8007F6D41FB1E86920F08050E861FA
:1019C000E06988B36968C1F38101022944D0022823
:1019D000C6F8608004D0FFF789FC044638E034E0A4
:1019E000FFF784FC074604E0FFF780FCC01B0228D9
:1019F0002BD828688001F7D4206AB0F5803F05D144
:101A00006868A16820F4003008436860D4E90801E0
:101A10000843696821F4741108436860C6F860904F
:101A2000FFF764FC044606E025E000BFFFF75EFC1C
:101A3000001B022809D828688001F7D51BE000BFE9
:101A4000FFF754FC001B022802D90320BDE8F88FE1
:101A500028688001F4D40EE00128F7D06868226A73
:101A600000F48031914204D1616A00F47010884220
:101A700001D00120EAE70020E8E700000010024062
:101A800000004242800442424400002000700040B6
:101A900010B5401EB0F1807F01D3012010BD4FF082
:101AA000E02460610F21601701F024FD0020A06197
:101AB00007202061002010BD7047704770B590F876
:101AC0003C20012A26D0012480F83C40022280F8E4
:101AD0003D2003685A689D6822F070060A68324308
:101AE0005A600D4B02689A4208D0B2F1804F05D07F
:101AF0000A4B9A4202D00A4B9A4204D1496825F017
:101B000080031943916080F83D40002180F83C102B
:101B1000084670BD022070BD002C0140000400404A
:101B20000008004010B5040003D094F83D0010B147
:101B300007E0012010BD002084F83C00204600F0A2
:101B40001FF8022084F83D00211D206801F020FAD2
:101B5000012084F8460084F83E0084F83F0084F8B1
:101B6000400084F8410084F8420084F8430084F87F
:101B7000440084F8450084F83D00002010BD0000BA
:101B800008B500680B49884212D10B48C16941F081
:101B90000401C161C069002200F0040000901146F8
:101BA0001E20FFF70FFCBDE808401E20FFF7FCBB1E
:101BB00008BD0000000800400010024090F83D10F1
:101BC000012901D001207047022180F83D100168F1
:101BD000CA6842F00102CA6000680B49884208D016
:101BE000B0F1804F05D00949884202D008498842A7
:101BF00004D1816801F00701062903D0016841F092
:101C00000101016000207047002C014000040040E9
:101C10000008004070B5044690F83C0000250128FB
:101C200017D0012684F83C60022084F83D0020682B
:101C3000826822F0770222F47F428260086850288E
:101C400038D00DDC20284FD005DC90B3102811D1FE
:101C50004AE0022070BD302846D040280AD13BE03F
:101C600060282FD070280DD0B0F5805F03D0B0F57C
:101C7000005F12D0012584F83D60002084F83C000C
:101C8000284670BDCB68D1E90121206801F0C3F975
:101C90002068816841F0770109E0CB68D1E9012132
:101CA000206801F0B8F92068816841F480418160C2
:101CB000E1E719E0CA684968206801F061FA50213B
:101CC000206806E0CA684968206801F06AFA602165
:101CD000206801F0AAF9CEE7CA684968206801F0D7
:101CE0004FFA40212068F4E7226801461046F0E7E9
:101CF0002DE9F0410D46040003D094F83D0018B1E1
:101D000008E00120BDE8F081002084F83C00204676
:101D100000F040F8022084F83D002068816844F219
:101D2000070291438160211D206801F031F922688A
:101D300090689169166A2B68AF69034340F20330DB
:101D4000814341EA0721A868EF6908434FF6FC4147
:101D50008843E96840EA0720014328692F6A0001A7
:101D600040EA0730084369686D6926F0220646EAB2
:101D70000515294393602268906154F8460B01626F
:101D8000012004F81F09E0752076E0762077A07521
:101D90000020B7E700B585B00021009101910291C4
:101DA000039100680E49884217D10E48816941F4B9
:101DB00000618161816901F400610491816941F0F0
:101DC000040181618069694600F0040004904FF4C9
:101DD000407000900448FFF799F905B000BD00007D
:101DE000002C0140001002400008014070B590F83E
:101DF0003E60044690F83F5090F8423090F84320FF
:101E0000022021B104290ED0012E1BD114E0012E95
:101E100018D1012B16D184F83E0084F8420001222B
:101E20000021206820E0012D0CD1012A0AD184F87C
:101E30003F0084F8430014E0012D03D1012B01D1B0
:101E4000012A01D0012070BD84F83E0084F83F00D3
:101E500084F8420084F8430001220021206801F048
:101E6000CDF801220421206801F0C8F8206801683B
:101E700041F001010160002070BD704770B504465B
:101E8000006801694FF00005C943890715D4C1688E
:101E9000C943890711D4E91E016101202077206818
:101EA00080698007204602D0FFF7E7FF04E000F0DA
:101EB000DFF8204600F08EF9257720680169C943D4
:101EC000490717D4C168C943490713D46FF0040107
:101ED0000161022020772068806910F4407F20464D
:101EE00002D0FFF7CAFF04E000F0C2F8204600F07D
:101EF00071F9257720680169C943090716D4C168BB
:101F0000C943090712D46FF008010161042020774A
:101F10002068C0698007204602D0FFF7AEFF04E0CA
:101F200000F0A6F8204600F055F9257720680169F1
:101F3000C943C90617D4C168C943C90613D46FF091
:101F400010010161082020772068C06910F4407FEB
:101F5000204602D0FFF791FF04E000F089F8204608
:101F600000F038F9257720680169C943C90708D10D
:101F7000C168C943C90704D1891E0161204600F028
:101F800079F920680169C943090609D4C168C943C0
:101F9000090605D46FF0800101612046FFF78CFD32
:101FA00020680169C943490609D4C168C943490683
:101FB00005D46FF040010161204600F0D1FA20689D
:101FC0000169C94389060BD4C168C943890607D48E
:101FD0006FF0200101612046BDE87040FFF76DBD44
:101FE00070BD000000B585B0002100910191029103
:101FF0000391026819480221B2F1804F1DD0184B9D
:102000009A4218D1826942F0080282618069039184
:1020100000F0080004902020CDE900016946114835
:10202000FFF774F81048416821F4406141F0E06125
:1020300041F40061416005B000BD826942F00402D4
:1020400082618069039100F0040004900120CDE9D1
:10205000000169460548FFF759F8ECE70010024017
:1020600000040040000C0140000001400008014055
:10207000704770B5044690F83C0000260D460128D4
:102080000FD0012084F83C006AB1042A1DD0082A30
:102090002FD00C2A3FD00126002084F83C00304687
:1020A00070BD022070BD206800F0C8FF2068816903
:1020B00041F0080181612068816921F0040181619A
:1020C000206881692A69114311E0206800F0DEFF71
:1020D0002068816941F4006181612068816921F48F
:1020E00080618161206881692A6941EA02218161F8
:1020F000D2E7206800F0F6FF2068C16941F00801CE
:10210000C1612068C16921F00401C1612068C16911
:102110002A69114311E0206801F010F82068C169B4
:1021200041F40061C1612068C16921F48061C1612D
:102130002068C1692A6941EA0221C161ACE710B592
:10214000040003D094F83D0010B107E0012010BD59
:10215000002084F83C00204600F01EF8022084F89D
:102160003D00211D206800F013FF012084F8460087
:1021700084F83E0084F83F0084F8400084F8410071
:1021800084F8420084F8430084F8440084F8450051
:1021900084F83D00002010BD08B501680B48B1F17E
:1021A000804F0BD00A4A914207D1C16941F0020128
:1021B000C161C06900F00200009008BDC16941F032
:1021C0000101C161C06900F00100F5E700100240A3
:1021D000000400407047000010B50446022249B1D7
:1021E00004290ED0082913D094F84100012816D0F4
:1021F000012010BD94F83E000128F9D184F83E205A
:102200000FE094F83F000128F2D184F83F2008E065
:1022100094F840000128EBD184F8402001E084F8D4
:1022200041200122206800F0E9FE0F492068884221
:1022300003D1426C42F4004242642068884208D0D4
:10224000B0F1804F05D00949884202D00849884240
:1022500004D1816801F00701062903D0016841F02B
:1022600001010160002010BD002C0140000400406D
:10227000000800402DE9FC5FA44C0026A06A401C29
:10228000A0620A2802DB00F019FEA662DFF8809245
:10229000DFF88082DFF880A2A04DA2694FF47A7740
:1022A000F2B39F48012A0ED09E49DFF880C2CB438B
:1022B0009D4FDFF87C929F486FEA0C08022A49D0B4
:1022C000032A68D087E0834601462069FDF760FF56
:1022D000E968FEF791F935D259462069FDF7AAFF62
:1022E000E968FEF77FF92DD2606A401C60620A2817
:1022F00010D169686069FDF79DFF0146226A8E482A
:10230000CDE90002854853468C4A143000F042FD66
:102310006662E060D4E90310FDF78CFFE96800E035
:1023200010E0FDF787FF01464FF07E50CDE90060D9
:102330007A48834B834A543000F02CFDA060FEF7AE
:10234000D8F846E06662D9F800004763D8F8000084
:10235000876340E0EA686FF0C70B1144814204D202
:102360002969994201DDB94208DB02EB0C01814287
:1023700031D2296941452ED949452CD21046FEF764
:102380003BF906D3D5E90301FEF72CF923D2C82087
:102390001FE058461DE0EA686FF08B0B1144814244
:1023A00004D22969994201DDB94208DB02EB0C0134
:1023B000814210D2296941450DD949450BD21046B9
:1023C000FEF71AF9E5D3D5E90301FEF70BF902D2BE
:1023D0008C2001F055F8E069012760B3DFF86881CF
:1023E0004FF002094FF4FA7B012827D002283DD094
:1023F000032852D04FF00309042851D005285FD09C
:10240000062816D1A07850B15048C4E905075049B4
:102410002868FDF7BDFEFEF76CF86063A670606B80
:10242000FEF759F82968FEF7DDF802D86661E66123
:10243000A770BDE8FC9FC4E90B67FAE7206B012891
:102440000BD1962001F01CF8E06A401CE062584570
:1024500003D1E662C4F8189026633E49E8688842D2
:10246000E7D24045E5DAA661E661E2E7206B0128A4
:102470000BD1962001F004F8E06A401CE062584558
:1024800003D1E662C4F8189026633349E8688842AD
:10249000CFD232498842E6DBCBE7C4E90676C8E70B
:1024A000206B01280CD1962000F0EAFFE06A401C66
:1024B000E062B0F5967F03D1E662C4F81890266317
:1024C000564651462069FDF763FEE968FEF794F829
:1024D00008D231462069FDF7ADFEE968FEF782F8C3
:1024E00000D2A761464641462069FDF751FEE968E2
:1024F000FEF778F807D331462069FDF79BFEE968BF
:10250000FEF77AF895D2C4F8189092E70000002000
:1025100068010020B0010020000070415C00002034
:102520000000F041FFFFDABC00003443FFFFDA3C5B
:10253000000034C3FFFF0E003333333F000070C18F
:1025400000006144000061C40000B442CDCC4C3EA8
:1025500000001C420000B4C2000020C10000204165
:10256000704770477047000070B5044620680C3013
:1025700050E8001F21F4907140E80012002AF5D1C4
:102580002068143050E8001F21F0010140E80012DB
:10259000002AF5D1206B012809D120680C3050E8C1
:1025A000001F21F0100140E80012002AF5D1206838
:1025B00040694FF0200241064FF0000015D5216818
:1025C000143151E8003F23F0400341E80035002D6D
:1025D000F5D1E16B49B109484863E06BFEF74AFD6C
:1025E00050B1E06B416B884706E0E08584F84220FB
:1025F00020632046FFF7B6FF002070BDD7310008EA
:1026000070470000F8B5016804460868CA684B695D
:1026100010F00F0F4FF0000559D003F0010602F43F
:102620009077374365D0C10705D0D10503D5616CDC
:1026300041F001016164410705D5D90703D0616C00
:1026400041F002016164810705D5D90703D0616CAF
:1026500041F004016164010707D502F02001314314
:1026600003D0616C41F008016164616C00293AD0CB
:10267000800604D5900602D5204600F0DEFD2068D5
:102680004069616CC0F38010090700D460B3204634
:1026900000F0ACFD20684069400621D52068143068
:1026A00050E8001F21F0400140E80012002AF5D157
:1026B000E06BA8B16D494163E06BFEF7DBFC0028DD
:1026C00011D0E06B416B01B0BDE8F04008478306D4
:1026D0000FD593060DD52046BDE8F84000F0ADBDFE
:1026E0002046FFF78DFFF8BD2046FFF789FF6564A0
:1026F000F8BD266B2023012E7CD1C6067AD5D606DE
:1027000078D508684868009048694FF0020640068E
:1027100040D5E16B086840680004000CE8D0A28D49
:102720008242E5D9E085886920282DD020680C30C8
:1027300050E8001F21F4807140E80012002AF5D112
:102740002068143050E8001F21F0010140E8001219
:10275000002AF5D12068143050E8001F21F0400114
:1027600040E80012002AF5D184F842302563206841
:102770000C3050E8001F21F0100140E80012002A40
:10278000F5D1E06BFEF752FC6663A08DE18D401A37
:1027900081B22AE0A08DE18D401A81B2E08D00283F
:1027A000A6D00029A4D022680C3252E8000F20F4F1
:1027B000907042E80007002FF5D12068143050E8EF
:1027C000002F22F0010240E80027002FF5D184F805
:1027D0004230256320680C3050E8002F22F01002B0
:1027E00040E80023002BF5D166632046FFF7B9FED1
:1027F000F8BDFFE705062BD5150629D594F841004D
:102800002128F5D1A068B0F5805F01D12069B0B171
:10281000206A411C2162216800784860E08C401EDB
:102820000004000CE084E3D12068C16821F080013D
:10283000C1602068C16841F04001C160D8E7206AEA
:102840000088C0F308004860206A801C2062E5E729
:102850004006CDD55006CBD5CA68204622F04002AE
:10286000CA6084F8413000F02AF9C1E7C731000896
:1028700070B5040004D094F84100002510B106E0C2
:10288000012070BD84F84050204600F023F8242039
:1028900084F841002068C16821F40051C1602046DD
:1028A00000F02CFD2068016921F49041016120684D
:1028B000416921F02A0141612068C16841F4005159
:1028C000C1606564202084F8410084F8420065639B
:1028D000002070BD70B586B000240094019402946D
:1028E0000394314E0368314902200322304DB34234
:1028F0002DD18B6943F480438B618B6903F4804352
:1029000004938B6943F008038B618969039201F09A
:10291000080104914021CDE9001069462846FEF7E0
:10292000F5FB8020CDE90004694628460294FEF7B5
:10293000EDFB2048416841F0E06141F00401416055
:10294000002211462520FEF73DFD252028E01A4EE5
:10295000B34227D1CB6943F48023CB61CB6903F425
:10296000802304938B6943F008038B618969039288
:1029700001F0080104913115CDE90010694628469F
:10298000FEF7C4FBF014CDE9000469462846029422
:10299000FEF7BCFB002211462720FEF713FD27207F
:1029A000FEF702FD06B070BD003801400010024085
:1029B000000C0140000001400048004090F8423007
:1029C000202B01D00220704721B11AB100230363EC
:1029D00000F0F0BC0120704710B504460E48844258
:1029E00006D1FFF7C1FD01220C490B48FFF7E6FFB6
:1029F0000B4884420FD10948401C0078FEF732F89A
:102A00000748FFF7B1FD05490122BDE81040491C08
:102A10000348FFF7D3BF10BD400200200000002094
:102A2000880200202DE9F843044690F841001F4633
:102A300016460D46202802D00220BDE8F8837DB15D
:102A400076B100206064212084F84100FEF74EFC3E
:102A5000A6848046E684A068B0F5805F02D003E0DB
:102A60000120EAE7206910B12E4600250EE000267D
:102A70000CE08021204600F0B8FCA0B9AEB116F8F9
:102A8000010B21684860E08C401EE084E08C4346E6
:102A90004FF0000200970028EBD14FF04001204694
:102AA00000F0A3FC30B10320C7E735F8020BC0F3F8
:102AB0000800E6E7202084F841000020BDE77047C9
:102AC000FEE700003EB500241048009401940294F3
:102AD0000D498460016001250573047505614FF49B
:102AE00060214460C161FEF7E9F808B1FDF7F3FF2A
:102AF0000095CDE9015469460448FEF75BF80028CB
:102B000001D0FDF7E8FF3EBD00240140F0000020A9
:102B100000B585B0002001900290039010488169B3
:102B200041F020018161816901F0200104918169F6
:102B300041F004018161816901F00401049181691E
:102B400041F0080181618069694600F00800049045
:102B50004FF4805000900348FEF7D8FA05B000BD4E
:102B600000100240000C014010B58CB024216846D2
:102B7000FDF703FB00241748099415490A94C0E99E
:102B800000144FF6FF71C0E90241046144618461A1
:102B90000320CDE900040120CDE9020402210491C3
:102BA000CDE90540CDE9074169460A48FFF7A0F89D
:102BB00008B1FDF790FF099409A906480A94FEF7A9
:102BC0007DFF002801D0FDF786FF0CB010BD00008E
:102BD000002C01402001002010B58AB00024079489
:102BE0001C2168460894FDF7C8FA16484FF080414A
:102BF00001604721C0E901144FF47A71C0E9031460
:102C00008461FFF79CFA08B1FDF765FF079407A9F7
:102C10000C480894FEF752FF08B1FDF75CFF6020F6
:102C2000CDE9000402940022694606480494FFF7A7
:102C300020FA08B1FDF74FFF0248FFF7D3F90AB0B9
:102C400010BD00006801002010B58AB00024079470
:102C50001C2168460894FDF790FA16481449016053
:102C60004721C0E901144FF47A71C0E9031484616B
:102C7000FFF765FA08B1FDF72EFF079407A90D4885
:102C80000894FEF71BFF08B1FDF725FF6020CDE992
:102C9000000402940422694606480494FFF7E9F907
:102CA00008B1FDF718FF0348FFF79CF90AB010BD03
:102CB00000040040B001002010B586B00024174881
:102CC00000940194029403940494134905940160C0
:102CD0004721C0E901144FF47A71C0E903148461FB
:102CE000FEF720FF08B1FDF7F6FE4FF4805000908C
:102CF00069460A48FEF78EFF08B1FDF7ECFE049422
:102D000004A906480594FEF7D9FE002801D0FDF776
:102D1000E2FE06B010BD000000080040F8010020EF
:102D20000C4810B50A4901604FF4E13141600021BF
:102D300081600C22C160C0E904128161C161FFF7AA
:102D400097FD002803D0BDE81040FDF7C4BE10BDBC
:102D500000380140400200200C4810B50A490160CB
:102D60004FF4E1314160002181600C22C160C0E973
:102D700004128161C161FFF77BFD002803D0BDE82B
:102D80001040FDF7A8BE10BD00480040880200209A
:102D9000FEE7FEE72DE9FF4F85B004468846129D09
:102DA0000898FDF7BFFBCDE902010798FDF7BAFBD4
:102DB000CDE900012846FDF7B5FBD4E90E939A460C
:102DC0004A46FDF716FB06460F4629464FF07E5051
:102DD000FDF730FA4146FDF733FAFDF7A3FB324623
:102DE0003B46FDF75FFA0546C4E90C01D4E9000C47
:102DF0000E462A4633466146FDF7FBFAC4E9060152
:102E000083460491D4E9020C2A4633466146FDF715
:102E1000F0FAD4E90823FDF745FA074688461398E7
:102E2000FDF780FB3A464346FDF7E3FAC4E90801A3
:102E3000074688464A46534628463146FDF7D3FAA8
:102E4000D4E90423FDF7D5FAC4E90A01C4E90E5612
:102E500081468A463A46434658460499FDF722FA87
:102E60004A465346FDF71EFAFDF7A0FB0546DDE98D
:102E700002013A464346FDF769FB03D2DDE9020150
:102E8000C4E90801DDE90001D4E90823FDF776FB78
:102E900003D2DDE90001C4E9080128460899FDF7DD
:102EA000ABFB00D2089D07992846FDF79BFB00D29B
:102EB000079D09B02846BDE8F08F704770B50E48F1
:102EC0000068416A0D48416002688C1A84600160A4
:102ED000C1F50040FDF7FFFA094E3146FDF7B0F9A4
:102EE000064D0C3528606042FDF7F5FA3146FDF7D6
:102EF000A7F9686070BD000020010020500000208C
:102F0000CDCCCC3C7047FEF7F7B930B593B0282153
:102F10006846FDF732F914210AA8FDF72EF90025BD
:102F200001200F9510951195010412958DE823004D
:102F300004904FF4E010CDE908100224079468468D
:102F4000FEF716FC08B172B6FEE70AA90F2081E869
:102F500031004FF48060CDE90D0502210AA8FEF78B
:102F60002BFB08B172B6FEE74FF4004011900F94AE
:102F70000FA8FEF7ABFA002801D072B6FEE713B037
:102F800030BD70470148FEF779BF0000F80100200E
:102F9000F0B50268164B174C174D4FF0804798421A
:102FA00005D0B84203D0A04201D0A84203D122F0FC
:102FB00070064A683243984205D0B84203D0A04216
:102FC00001D0A84203D122F44074CA6822434C695C
:102FD00022F08002224302608A68C2620A6882622A
:102FE000984201D10969016301214161F0BD0000EE
:102FF000002C0140000400400008004010B501F022
:103000001F030121046A99408C430462016A9A40BB
:103010001143016210BD10B5846842EA032224F412
:103020007F440A432243826010BD826822F070020E
:103030000A4342F0070181607047000030B5036A1F
:10304000026A22F0010202624268846924F0730578
:103050000C682C4323F002058B682B430A4DA842D1
:103060000BD123F00805CB6822F440722B434D6945
:1030700023F0040315438A692A4342608461496846
:103080004163036230BD0000002C014030B5026A8C
:10309000036A23F010030362436884690D6824F413
:1030A000E64444EA05248D6822F0200242EA051233
:1030B0000B4DA8420ED1CD6822F0800242EA0512E3
:1030C0004D6923F4406343EA85038D6922F0400291
:1030D00043EA85034360846149688163026230BDCD
:1030E000002C014030B5036A026A22F48072026249
:1030F0004268C46923F4007324F073050C682C4300
:103100008D6843EA05230C4DA8420ED1CD6823F407
:10311000006343EA05234D6922F4405242EA051256
:103120008D6923F4806342EA05124260C4614968F4
:10313000C163036230BD0000002C014030B5046A59
:10314000026A22F4805202624268C3690D6823F465
:10315000E64343EA05238D6824F4005444EA053429
:10316000064DA84204D14D6922F4804242EA8512FC
:103170004260C36149680164046230BD002C0140B3
:1031800010B5036A046A24F001040462846924F01F
:10319000F00444EA021423F00A020A438461026242
:1031A00010BD10B5036A046A24F010040462846937
:1031B00023F0A00324F4704444EA023243EA0111EC
:1031C0008261016210BD10B5406A0021C185C184D1
:1031D000FFF716FA10BD10B5406A0021C185202204
:1031E00080F842200163FFF7BDF910BD01680C3182
:1031F00051E8002F22F4907241E80023002BF5D112
:103200000168143151E8002F22F0010241E8002347
:10321000002BF5D1016B012909D101680C3151E86E
:10322000002F22F0100241E80023002BF5D12021CD
:1032300080F8421000210163704708B590F84210F1
:10324000222901D0022008BD82684FF480539A429F
:1032500001D1016921B1816A9A421BD04AB10AE0C9
:103260000268816A5268C2F308020A80816A891C76
:1032700008E0026972B10268526802F07F020A70C7
:10328000816A491C8162C18D491E0904090CC185EE
:1032900003D01BE002685268F1E70168CA6822F0B7
:1032A0002002CA600168CA6822F48072CA6001689C
:1032B0004A6922F001024A61202180F8421000216F
:1032C0004163026B012A03D0FFF786FB002008BD93
:1032D000016301680C3151E8002F22F0100241E82F
:1032E0000023002BF5D101680A68D20602D50A68CE
:1032F00049680091818DFFF734F9E7E770B504461E
:1033000000680169E26821F44051114301612169BB
:10331000A0680843616908432168CA6841F20C63E8
:103320009A430243CA6020684169A26921F440714E
:10333000114341611E492068884202D1FEF7E2F93B
:1033400001E0FEF7CFF900EBC00101EB001260686D
:1033500064218000B2FBF0F3B3FBF1F36FF01806C9
:103360007343B2FBF0F5B2FBF0F605EB83053223B5
:1033700003EB0515B5FBF1F5B6FBF1F605F0F0052D
:1033800005EB0615B2FBF0F6B2FBF0F0B0FBF1F086
:103390006FF01802504306EB800003EB0010B0FB07
:1033A000F1F0216800F00F002844886070BD000033
:1033B0000038014081628285C2850021416422215A
:1033C00080F84210016921B10168CA6842F4807234
:1033D000CA6001684A6942F001024A610068C16836
:1033E00041F02001C160002070472DE9F04198466E
:1033F00017460E460446069D27E0681C25D02DB1D1
:10340000FDF774FFA0EB0800A8421ED920680C301D
:1034100050E8001F21F4D07140E80012002AF5D1D5
:103420002068143050E8001F21F0010140E800122C
:10343000002AF5D1202084F8410084F842000020C1
:1034400084F840000320BDE8F0812068006836EA77
:10345000000004D00020B842CFD00020F3E70120C4
:10346000F9E700000148FFF7CDB800004002002056
:103470000148FFF7C7B8000088020020FEE70000FF
:1034800030B5114A4FF47A71104B1268884201DD51
:1034900008460DE00E4DA84201DA28460EE000284D
:1034A00002DD4FF0010400E008DB3CB1002C04D049
:1034B000C0F57A7050631868816330BD5163196834
:1034C00000F57A70886330BD68010020B0010020EB
:1034D00018FCFFFF0FB4054B10B503A9044A02986E
:1034E00000F0EAF810BC5DF814FB0000C13D0008D4
:1034F000480000200907090E002804DB00F1E02045
:1035000080F80014704700F00F0000F1E02080F810
:10351000141D704702E008C8121F08C1002AFAD122
:1035200070477047002001E001C1121F002AFBD143
:10353000704700002DE9FF5F82B00021DDE9043013
:10354000020DDDF840B0034318D044F61050A2F24B
:10355000FF3242431514119801281FD0A5EB0B0030
:10356000401C5FEA000A4FF000064E4FDFF838912A
:10357000B046504615D5CAF1000413E01198012455
:103580004AA3012801D16FEA0B010298119AC0E900
:103590000031C0E9024206B0BDE8F09FCBF1000067
:1035A000DFE704460021404A491842EB0450CDE9C8
:1035B000001012E0E00707D032463B46404649463D
:1035C000FCF717FF8046894632463B4610461946AF
:1035D000FCF70FFF06460F466410002CEAD1DDE928
:1035E0000401DDE90023BAF1000F06DAFCF701FF60
:1035F00042464B46FCF7FDFE05E0FDF703F9424667
:103600004B46FDF7FFF804460E460022284BFCF718
:10361000B5FF03D84FF0FF30014607E00022254BED
:1036200020463146FCF73EFEFDF75BF9102409E029
:10363000002C0ADB0A220023FCF7FEFF039B30323A
:103640001A55641E50EA0102F2D1641C039AC4F1B7
:1036500011031444119A012A03D0012208430DD109
:103660000AE0084304D000204FF0110B119072E7DC
:10367000A3EB0B056D1E0DE05B4504DD4FF0000272
:1036800005F1010504E003DA4FF00002A5F10105A0
:10369000002AECD002981199C0E90231C0E9004536
:1036A00079E70000000014400000F03F3000000007
:1036B0000000F0430000E03F2DE9FF4F95B09A462F
:1036C000884606460025EEE1252877D100242746C6
:1036D000F94A0121039400E0044316F8013F203B1E
:1036E00001FA03F01042F7D130782A2811D06FF098
:1036F0002F033078A0F13002092A16D8039A44F03B
:10370000020402EB820203EB42021044761C039097
:10371000EFE758F8042B0392002A03DA504244F4EE
:103720000054039044F00204761C30782E2816D101
:1037300016F8010F44F004042A280DD06FF02F0270
:103740003078A0F13003092B09D807EB870302EB8F
:103750004303C718761CF3E758F8047B761C3078CF
:103760006C280FD006DC4C2817D068280DD06A28AA
:1037700014D104E0742810D07A280FD10DE044F45D
:1037800000140AE044F4801401E044F44014727818
:10379000824202D104F58014761C761C30786628AB
:1037A0000BD013DC582877D009DC002875D04528C9
:1037B000F6D04628F4D047281AD193E118E06328C0
:1037C00035D0642879D0652812D18BE1702873D068
:1037D00008DC6728F1D069286FD06E280DD06F28DB
:1037E00006D1ACE073282CD0752874D0782853D03B
:1037F0005246179990476D1C54E1C4F302500228B9
:1038000009D003280DD0D8F8001004280DD00D6081
:1038100008F1040846E1D8F80010EA17C1E900529F
:10382000F6E7D8F800100D80F2E70D70F0E718F811
:10383000041B8DF8001000208DF80100EB460120DC
:1038400003E058F804BB4FF0FF3061074FF0000170
:1038500002D40DE009F101018946B9420FDA814530
:10386000F8DB1BF809100029F4D108E009F1010187
:1038700089468142FADB1BF809100029F6D103982A
:103880005346A0EB090721463846179A00F080FA04
:10389000284400EB090507E044E008E10DE01BF8CF
:1038A000010B524617999047B9F10109F7D25346D7
:1038B00021463846179AF2E039E00A21C4F3025251
:1038C0004FF0000B0091022A06D058F8040BC117E4
:1038D000032A09D00AE023E008F1070020F00702DC
:1038E000F2E80201904605E000B2C117042A01D1B6
:1038F00040B2C117002906DA0A460021404261EBB6
:1039000002012D2202E0220504D52B228DF804208D
:10391000012203E0E20701D02022F7E7914657E0B9
:103920000A2100E010214FF0000B00910BE0102164
:103930004FF0000B44F004040827009103E0082036
:103940004FF0000B0090C4F30252022A05D058F841
:10395000040B0021032A08D008E008F1070020F03A
:103960000702F2E80201904603E080B2042A00D187
:10397000C0B24FF0000922072AD53278702A07D04A
:10398000DDF800C08CF0100C5CEA0B0C05D00EE0EA
:1039900040228DF80420012208E050EA010306D0FD
:1039A00030238DF804308DF8052002229146009BCB
:1039B00083F0080353EA0B030AD150EA010201D154
:1039C000620705D530228DF804204FF001097F1ED3
:1039D0003278582A04D039A20C920CAA02920BE039
:1039E0003BA2F9E75B46009AFCF726FE0C9B9B5C2A
:1039F000029A521E0292137050EA0102F2D102980A
:103A000004A9081A00F1200B600702D524F48034C1
:103A100000E001275F4502DDA7EB0B0000E000207E
:103A200000EB0B01009003984944401A0390E00317
:103A300006D453462146179A039800F0A9F9054485
:103A4000002706E001A85246C05D179990476D1CFB
:103A50007F1C4F45F6DBE0030CD553462146179AF1
:103A6000039800F095F9054404E030205246179978
:103A700090476D1C0099481E00900029F5DC08E075
:103A80000298029952460078491C02911799904772
:103A90006D1CBBF10001ABF1010BF1DC5BE100F04F
:103AA00065F90544761C307800287FF40DAE19B016
:103AB0002846BDE8F08F000009280100303132337C
:103AC000343536373839616263646566000000005A
:103AD0003031323334353637383941424344454644
:103AE00000000000600700D4062708F1070020F05E
:103AF0000700F0E80223804603F0004C5FEA0C0068
:103B000001D097A009E0200501D596A005E0E007C7
:103B100001D095A001E0AFF24C001390307823F073
:103B2000004365280CD006DC452809D046281DD066
:103B300047287FD13BE0662818D067287AD136E045
:103B40000021112F01DB112000E0781CCDE90001DC
:103B500004A90CA8FFF7EEFCDDE90D010C9A4FF06B
:103B6000000B07F10109109200914EE04FF0004068
:103B70000097CDE9011004A90CA8FFF7DBFCDDE9F3
:103B80000D020C9B0F994FF0000B91461093009281
:103B900011B9791C00EB0109B7EB090003D4C0F19E
:103BA000FF3B07F10109A9EB0700019042E0012F5B
:103BB00000DA01270021112F01DD112000E0384635
:103BC000CDE9000104A90CA8FFF7B4FCDDE90D0163
:103BD0000C9A00914FF0000BB946109221070FD4B8
:103BE000009A4A4503DA914601E0A9F10109B9F1C9
:103BF000010F05DD109AA9F10101515C3029F4D0C3
:103C0000B84202DA10F1040F03DA0121CDE9011004
:103C100010E0002803DC8344A9EB000102E0411C12
:103C2000494500DD8946A0EB0B00401C01904FF098
:103C300000400290200705D40198484502DB4FF070
:103C4000FF30019000208DF84B0002980DF14B07DA
:103C5000B0F1004F25D002200C902B200D9002983F
:103C600000280CDA404202902D200D9007E00A2136
:103C70000298FCF7CBFC3031029007F8011D0C993B
:103C8000481E0C900029F2DC02980028EFD1791E22
:103C90000D980870307800F0200040F0450007F8DB
:103CA000020D11A8C01BC01D02901398007800B12E
:103CB000012000EB0901019801EBE0710298014439
:103CC0000398401A401E0390E00306D45346214651
:103CD000179A039800F05CF805441398007818B11F
:103CE0005246179990476D1CE00323D55346214651
:103CF000179A039800F04CF805441BE0BBF1000F45
:103D000007DB0098584504DD1098179910F80B0050
:103D100001E0179930205246904701980BF1010BB2
:103D2000401E05F10105019004D12E20524617993D
:103D300090476D1CB9F10001A9F10109DEDC05E035
:103D400017F8010B5246179990476D1C0299481EAF
:103D500002900029F4DC53462146179A03989EE608
:103D60002D0000002B000000200000002DE9F04194
:103D7000044600251E461746880404D405E039464B
:103D80002020B0476D1C641EF9D52846BDE8F0819F
:103D90002DE9F041044600251E469046C80301D592
:103DA000302700E02027880404D505E04146384646
:103DB000B0476D1C641EF9D52846BDE8F0810000AF
:103DC00013B50A23012269460248FEF72BFE00982C
:103DD0001CBD00004002002070B5044690B01D4696
:103DE00016460846FCF79EFBCDE900013046FCF77D
:103DF00099FBCDE902012846FCF794FBCDE90401CB
:103E00000020CDE90600CDE90800CDE90A00CDE9A2
:103E10000E00CDE90C00402269462046FCF794F9DB
:103E200010B070BD90B0FDF76FFAFFF76EF8FEF7B7
:103E30006FFEFEF799FEFEF7CFFEFEF73DFFFEF7A1
:103E40006FFFFEF789FFFEF73DFEFEF7FDFE2B48F4
:103E5000FCF744FE01222A492A48FEF7AFFD284913
:103E60000122491C2848FEF7A9FD00212748FEF73A
:103E7000B3F904212648FEF7AFF92648FDF79EFE68
:103E80003C212548FDF7B2FF1D4C24480023206249
:103E9000234A19466846FFF79FFF4022694621489A
:103EA000FCF752F9204B002220496846FFF794FFA7
:103EB0001C48402269464030FCF746F916494FF449
:103EC0000040096848620D48FDF750F832210B4860
:103ED000FCF7AEFF0948FCF7EBFE800505D5074867
:103EE000FCF7E8FEA080FCF727FD6069FCF71AFBF1
:103EF00002460B460EA0FFF7EDFAE4E7F0000020C3
:103F000000000020400200208802002068010020FC
:103F1000B0010020F8010020200100203333733F5E
:103F2000CDCC4C407000002000C0864466666142E3
:103F3000252E326600000000010202030405060778
:103F400008090A0B0C0D0E0F1010010202030405E4
:103F5000060708090A0B0C0D0E0F101000000000D8
:103F60000000000001020304060708090000000029
:103F700001020304943F0008000000204C000000F0
:103F800014350008E03F00084C00002084060000C3
:103F900024350008000001000000000000000000BF
:103FA000000000009A99A9400000000000000000F5
:103FB000000000000000803F000000000000000042
:103FC00000000000010000000000000001000000EF
:103FD00010000000000000000024F40000000000B9
:04000005080000ED02
:00000001FF
